:100000000C9467000C948F000C948F000C948F005C
:100010000C948F000C948F000C948F000C948F0024
:100020000C948F000C948F000C948F000C948F0014
:100030000C948F000C948F000C948F000C948F0004
:100040000C9472040C948F000C94E2040C94BC0485
:100050000C948F000C948F000C948F000C948F00E4
:100060000C9414050C948F0005A84CCDB2D44EB955
:100070003836A9020C50B9918688083CA6AAAA2A4B
:10008000BE000000803F00000000250028002B007B
:10009000040404040404040402020202020203032E
:1000A0000303030301020408102040800102040836
:1000B00010200102040810200000000800020100C6
:1000C00000030407000000000000000042061124A5
:1000D0001FBECFEFD8E0DEBFCDBF11E0A0E0B1E0A2
:1000E000E4E8F5E102C005900D92A635B107D9F715
:1000F00022E0A6E5B1E001C01D92A03BB207E1F706
:1001000010E0C7E6D0E004C02197FE010E94E4079A
:10011000C636D107C9F70E947B060C94C00A0C941E
:10012000000090E0FC01E854FF4F2491FC01EC55E5
:10013000FF4F3491FC01E057FF4FE491EE23B1F102
:10014000222339F1233091F038F42130A9F0223004
:1001500001F584B58F7D12C0273091F02830A1F0D1
:100160002430B9F4809180008F7D03C0809180009D
:100170008F77809380000DC084B58F7784BD09C0D0
:100180008091B0008F7703C08091B0008F7D809305
:10019000B000F0E0EE0FFF1FEA57FF4FA591B491BA
:1001A0008FB7F894EC91E32BEC938FBF08953FB792
:1001B000F8948091030290910402A0910502B091FD
:1001C000060226B5A89B05C02F3F19F00196A11D78
:1001D000B11D3FBFBA2FA92F982F8827820F911DDD
:1001E000A11DB11DBC01CD0142E0660F771F881F24
:1001F000991F4A95D1F708958F929F92AF92BF921F
:10020000CF92DF92EF92FF920E94D7004B015C01E8
:1002100084E6C82ED12CE12CF12C0E94D700DC0101
:10022000CB0188199909AA09BB09883E9340A10509
:10023000B10598F321E0C21AD108E108F10888EE6F
:10024000880E83E0981EA11CB11CC114D104E104E6
:10025000F10419F7FF90EF90DF90CF90BF90AF902F
:100260009F908F900895E091EA01F091EB01309713
:1002700029F01092E5011092E40109940895CF93BA
:10028000DF93AC01E091E801F091E9013097F1F0E2
:100290009091E7018091E6019817C0F090E0292F36
:1002A00030E02617370754F4D901AA5ABE4FEA01A5
:1002B000C20FD31F28812C939F5FF1CF1092E701CB
:1002C0006093E601CB01DF91CF910994DF91CF914B
:1002D0000895CF92DF92EF92FF920F931F93CF93E7
:1002E000DF936C017A018B01C0E0D0E0CE15DF0511
:1002F00081F0D8016D918D01D601ED91FC910190B5
:10030000F081E02DC6010995892B11F02196EECFE1
:100310007E01C701DF91CF911F910F91FF90EF9068
:10032000DF90CF900895FC01538D448D252F30E050
:10033000842F90E0821B930B541710F0CF960895F2
:1003400001970895FC01918D828D981761F0828D3F
:10035000DF01A80FB11D5D968C91928D9F5F9F73F9
:10036000928F90E008958FEF9FEF0895FC01918D9B
:10037000828D981731F0828DE80FF11D858D90E008
:1003800008958FEF9FEF0895FC01918D228D892FA5
:1003900090E0805C9F4F821B91098F73992708958D
:1003A00087E092E00E94C40121E0892B09F420E05B
:1003B000822F0895FC01848DDF01A80FB11DA35A7F
:1003C000BF4F2C91848D90E001968F739927848F75
:1003D000A689B7892C93A089B1898C918370806498
:1003E0008C93938D848D981306C00288F389E02D39
:1003F00080818F7D80830895EF92FF920F931F93EA
:10040000CF93DF93EC0181E0888F9B8D8C8D9813C7
:1004100005C0E889F989808185FD26C0F62E0B8DFF
:1004200010E00F5F1F4F0F731127E02E8C8DE81225
:100430000CC00FB607FCFACFE889F989808185FFE7
:10044000F5CFCE010E94DA01F1CF8B8DFE01E80FCE
:10045000F11DE35AFF4FF0829FB7F8940B8FEA89A2
:10046000FB89808180620AC09FB7F894EE89FF897A
:100470006083E889F98980818370806480839FBF6D
:1004800081E090E0DF91CF911F910F91FF90EF906D
:100490000895CF93DF93EC01888D8823C9F0EA8912
:1004A000FB89808185FD05C0A889B9898C9186FD6D
:1004B0000FC00FB607FCF5CF808185FFF2CFA8896A
:1004C000B9898C9185FFEDCFCE010E94DA01E7CF8B
:1004D000DF91CF91089580E090E0892B29F00E9470
:1004E000D00181110C940000089585ED8093BC002B
:1004F0008091BC0084FDFCCF1092E30108954091EF
:100500009601262F30E0240F311D21323105DCF415
:100510002091E3012430C9F4FC0180E090E08617CB
:1005200058F4309196012191DC01AA58BE4FA30FD7
:10053000B11D2C930196F3CF80919601680F6093C3
:10054000960180E0089581E0089582E0089508957D
:10055000E091E7018091E601E81730F4F0E0EA5A13
:10056000FE4F808190E008958FEF9FEF0895909166
:10057000E7018091E601981750F4E92FF0E0EA5A7C
:10058000FE4F208130E09F5F9093E70102C02FEF84
:100590003FEFC9010895CF92DF92EF92FF920F9340
:1005A0001F93CF93DF9300D0CDB7DEB77C01CE0190
:1005B00001966C018C01C8018C199D098E159F054F
:1005C00044F484EA92E00E94B702F80181938F011B
:1005D000F2CFE981F2E0EF16F10461F4E11108C015
:1005E00081E09A81913009F080E08093FD011AC08A
:1005F00080E816C08091FD01EE2391F0882391F0F0
:1006000086EF8E0F843020F4F0E0EA51FE4F07C0F1
:1006100088ED8E0F843060F7F0E0EC53FE4F808160
:100620008093F4010F900F90DF91CF911F910F9164
:10063000FF90EF90DF90CF9008958091E60190E0D9
:100640002091E701821B91090895CF93DF93CB019D
:10065000EA01642F0E947F02CE01DF91CF910895BD
:10066000CF93DF931F92CDB7DEB7698361E0CE01F0
:1006700001960E947F0281E090E00F90DF91CF9180
:1006800008956091F40184EA92E00C943003089597
:1006900080E090E00895009769F0FC01019000204F
:1006A000E9F73197AF01481B590BBC0187E092E095
:1006B0000C94690180E090E008958F929F92AF9230
:1006C000BF920F931F93CF93DF93CDB7DEB7A19760
:1006D0000FB6F894DEBF0FBECDBF19A2423008F4AA
:1006E0004AE08E010F5D1F4F842E912CA12CB12C5E
:1006F000A50194010E94C207E62FB901CA01015069
:100700001109EA3014F4E05D01C0E95CD801EC9312
:10071000232B242B252B61F7C8010E944B03A196A4
:100720000FB6F894DEBF0FBECDBFDF91CF911F9102
:100730000F91BF90AF909F908F9008958F929F924E
:10074000AF92BF92CF92DF92EF92FF920F931F93DF
:10075000CF93DF936B017C01142F9B01AC010E94AE
:100760006D0A882319F085E291E027C04601570100
:10077000E894B7F82FEF3FEF4FE75FE7C501B4010B
:100780000E946D0A81110DC02FEF3FEF4FE75FE729
:10079000C501B4010E94570818161CF489E291E0C3
:1007A0000CC02FEF3FEF4FE75FE4C701B6010E9497
:1007B000F309181684F48DE291E0DF91CF911F9137
:1007C0000F91FF90EF90DF90CF90BF90AF909F90F0
:1007D0008F900C944B032FEF3FEF4FE75FECC70177
:1007E000B6010E94570887FDE6CF20E030E0A9015E
:1007F000C701B6010E94570887FF0BC06DE287E072
:1008000092E00E94FC01EC01F7FAF094F7F8F09402
:1008100002C0C0E0D0E000E060E070E080E09FE374
:10082000101741F020E030E040E251E40E946108FE
:100830000F5FF6CFA70196010E94EB076B017C01C9
:100840000E94D3084B015C014AE00E945D03C80F7F
:10085000D91F1123B9F1C501B4010E9402099B01FE
:10086000AC01C701B6010E94EA076B017C016EE290
:1008700087E092E00E94FC01C80FD91F20E030E021
:1008800040E251E4C701B6010E94F8094B015C0146
:100890000E94D3086B01E12CF12C4AE0C701B6019C
:1008A0000E945D03C80FD91FC701B6010E9402094B
:1008B0009B01AC01C501B4010E94EA076B017C01F8
:1008C0001150E1F6CE01DF91CF911F910F91FF9072
:1008D000EF90DF90CF90BF90AF909F908F90089552
:1008E0000E94BB0A1F920F920FB60F9211242F93F2
:1008F0003F938F939F93AF93BF938091FF0190910C
:100900000002A0910102B09102023091FE0123E0A9
:10091000230F2D3720F40196A11DB11D05C026E837
:10092000230F0296A11DB11D2093FE018093FF01AC
:1009300090930002A0930102B093020280910302FF
:1009400090910402A0910502B09106020196A11DAA
:10095000B11D8093030290930402A0930502B0930B
:100960000602BF91AF919F918F913F912F910F9070
:100970000FBE0F901F9018951F920F920FB60F92F7
:1009800011242F933F934F935F936F937F938F9394
:100990009F93AF93BF93EF93FF9387E092E00E9402
:1009A000DA01FF91EF91BF91AF919F918F917F916C
:1009B0006F915F914F913F912F910F900FBE0F90CC
:1009C0001F9018951F920F920FB60F9211242F931C
:1009D0008F939F93EF93FF93E0911702F09118028A
:1009E0008081E0911D02F0911E0282FD12C0908173
:1009F000809120028F5F8F7320912102821751F026
:100A0000E0912002F0E0E95FFD4F958F8093200296
:100A100001C08081FF91EF919F918F912F910F9055
:100A20000FBE0F901F9018951F920F920FB60F9246
:100A300011242F933F934F935F936F937F938F93E3
:100A40009F93AF93BF93EF93FF938091B900887FFB
:100A5000803609F49CC068F5883209F45BC090F4D4
:100A6000803109F454C038F4882309F4F6C0883082
:100A700009F44DC0F6C0883109F44CC0803209F445
:100A80005DC0EFC0803409F468C048F4803309F4D5
:100A900055C0883309F0E5C08093B901D8C08035CE
:100AA00009F44FC0883509F45DC0883409F0D9C015
:100AB000D6C0883909F4C7C0A8F4883709F467C0DC
:100AC00038F4883609F463C0803709F460C0C9C0BF
:100AD000883809F4B8C0803909F45FC0803809F05B
:100AE000C0C05BC0803B09F486C038F4803A09F48A
:100AF00066C0883A09F47FC0B4C0803C09F4A7C03E
:100B0000883C09F4A4C0883B09F48AC0AAC080913B
:100B1000DC0110C09091DB018091DA01981770F52B
:100B2000E091DB0181E08E0F8093DB01F0E0E65481
:100B3000FE4F80818093BB0085EC86C08093B90115
:100B40008EC0E091DB0181E08E0F8093DB0180910C
:100B5000BB00F0E0E654FE4F80839091DB01809172
:100B6000DA016EC0E091DB0181E08E0F8093DB0142
:100B70008091BB00F0E0E654FE4F80838091E2015B
:100B800081116DC081E08093E10184EA61C083E05E
:100B90008093E3011092B801CFCF8091B8018032E9
:100BA00008F051C0E091B80181E08E0F8093B80148
:100BB0008091BB00F0E0E856FE4F8083BDCF85EC0E
:100BC0008093BC001092E3018091B801803230F430
:100BD000E091B801F0E0E856FE4F10826091B80154
:100BE00070E0E091DD01F091DE0188E991E0099586
:100BF0001092B80136C084E08093E301109297010F
:100C000010929601E091DF01F091E0010995809149
:100C10009601811105C081E08093960110927601C2
:100C2000E091970181E08E0F80939701F0E0EA5800
:100C3000FE4F80818093BB00909197018091960137
:100C4000981708F479CF85E88093BC000AC085EC3A
:100C50008093BC001092E30104C01092B9010E947D
:100C60007502FF91EF91BF91AF919F918F917F910D
:100C70006F915F914F913F912F910F900FBE0F9009
:100C80001F901895E7E0F2E01382128288EE93E05D
:100C9000A0E0B0E084839583A683B78325E031E0AC
:100CA0003183208325EC30E03587248724EC30E045
:100CB0003787268720EC30E0318B208B21EC30E029
:100CC000338B228B22EC30E0358B248B26EC30E00A
:100CD000378B268B118E128E138E148EE4EAF2E07F
:100CE0001382128284839583A683B78387E191E080
:100CF000918380830895789484B5826084BD84B59F
:100D0000816084BD85B5826085BD85B5816085BD06
:100D100080916E00816080936E00109281008091BE
:100D20008100826080938100809181008160809346
:100D30008100809180008160809380008091B1006B
:100D400084608093B1008091B00081608093B00096
:100D500080917A00846080937A0080917A0082602A
:100D600080937A0080917A00816080937A008091EC
:100D70007A00806880937A001092C100E091170297
:100D8000F091180282E08083E0911302F091140246
:100D900083E08083E0911502F091160285E680835E
:100DA00010921F02E0911B02F0911C0286E08083EA
:100DB000E0911902F0911A02808180618083E091B4
:100DC0001902F0911A02808188608083E0911902F3
:100DD000F0911A02808180688083E0911902F0917D
:100DE0001A0280818F7D80831092E7011092E601C4
:100DF0001092E5011092E4011092E30181E08093EA
:100E0000E2011092E10182E10E94910083E10E94DF
:100E100091008091B9008E7F8093B9008091B900D4
:100E20008D7F8093B90088E48093B80085E4809337
:100E3000BC0083E391E09093E0018093DF018FE3B6
:100E400091E09093DE018093DD018CED8093BA00F8
:100E50008BEC92E09093E9018093E80181E493E0C8
:100E60009093EB018093EA010E94FC0088E391E0FB
:100E70000E944B038091FD01811103C084E391E046
:100E800002C081E391E00E944B0383E491E00E9461
:100E90004B036091F9017091FA018091FB019091EF
:100EA000FC0142E00E949E0381E591E00E944B0319
:100EB0006091F5017091F6018091F7019091F80130
:100EC00042E00E949E038BE491E00E944B036091FC
:100ED000F40170E080E090E04AE00E945D0383E569
:100EE00091E00E944B038091FD01882309F445C0E5
:100EF000C09100016C2F70E080E090E00E94020938
:100F00006B017C010E94650AD62FAB01BC014093A6
:100F1000F9015093FA016093FB017093FC01C70142
:100F2000B6010E945C089B01AB01BC014093F50136
:100F30005093F6016093F7017093F801D093F0019C
:100F40008091FA018093F1018091FB018093F2017D
:100F50008091FC018093F3012093EC018091F601D4
:100F60008093ED018091F7018093EE018091F8016B
:100F70008093EF01CF5FC09300010E94FC000E94AC
:100F80006B0274CFA1E21A2EAA1BBB1BFD010DC080
:100F9000AA1FBB1FEE1FFF1FA217B307E407F50729
:100FA00020F0A21BB30BE40BF50B661F771F881F05
:100FB000991F1A9469F760957095809590959B019B
:100FC000AC01BD01CF010895EE0FFF1F0590F49114
:100FD000E02D09945058BB27AA270E9402080C94C0
:100FE000A5090E946C0938F00E94730920F039F4B9
:100FF0009F3F19F426F40C9469090EF4E095E7FB81
:101000000C946309E92F0E94CA0958F3BA176207C2
:1010100073078407950720F079F4A6F50C94EC0982
:101020000EF4E0950B2EBA2FA02D0B01B901900103
:101030000C01CA01A0011124FF27591B99F0593F47
:1010400050F4503E68F11A16F040A22F232F342F8F
:101050004427585FF3CF469537952795A795F040DD
:101060005395C9F77EF41F16BA0B620B730B840BF2
:10107000BAF09150A1F0FF0FBB1F661F771F881FAA
:10108000C2F70EC0BA0F621F731F841F48F4879502
:1010900077956795B795F7959E3F08F0B0CF9395F4
:1010A000880F08F09927EE0F9795879508950E946D
:1010B0003F0908F481E008950E947C09E3950C94AF
:1010C000B6090E9475080C94A5090E94730958F08E
:1010D0000E946C0940F029F45F3F29F00C946309E9
:1010E00051110C94ED090C9469090E94CA0968F326
:1010F0009923B1F3552391F3951B550BBB27AA27D1
:1011000062177307840738F09F5F5F4F220F331F0A
:10111000441FAA1FA9F335D00E2E3AF0E0E832D0D2
:1011200091505040E695001CCAF72BD0FE2F29D0D5
:10113000660F771F881FBB1F261737074807AB07A7
:10114000B0E809F0BB0B802DBF01FF2793585F4F1C
:101150003AF09E3F510578F00C9463090C94ED0928
:101160005F3FE4F3983ED4F3869577956795B795FE
:10117000F7959F5FC9F7880F911D9695879597F909
:101180000895E1E0660F771F881FBB1F6217730782
:101190008407BA0720F0621B730B840BBA0BEE1F97
:1011A00088F7E09508950E94D20988F09F5798F03B
:1011B000B92F9927B751B0F0E1F0660F771F881F5C
:1011C000991F1AF0BA95C9F714C0B13091F00E9476
:1011D000EC09B1E008950C94EC09672F782F88276B
:1011E000B85F39F0B93FCCF3869577956795B3959D
:1011F000D9F73EF490958095709561957F4F8F4F0C
:101200009F4F0895E89409C097FB3EF49095809510
:10121000709561957F4F8F4F9F4F9923A9F0F92FBC
:1012200096E9BB279395F695879577956795B7953A
:10123000F111F8CFFAF4BB0F11F460FF1BC06F5F20
:101240007F4F8F4F9F4F16C0882311F096E911C032
:10125000772321F09EE8872F762F05C0662371F053
:1012600096E8862F70E060E02AF09A95660F771F67
:10127000881FDAF7880F9695879597F90895990F43
:101280000008550FAA0BE0E8FEEF16161706E80750
:10129000F907C0F012161306E407F50798F0621B71
:1012A000730B840B950B39F40A2661F0232B242B46
:1012B000252B21F408950A2609F4A140A6958FEF65
:1012C000811D811D089597F99F6780E870E060E0B7
:1012D00008959FEF80EC089500240A9416161706CF
:1012E00018060906089500240A9412161306140617
:1012F000050608950C9469090E94D209D8F3E89470
:10130000E0E0BB279F57F0F02AED3FE049EC06C034
:10131000EE0FBB0F661F771F881F28F0B23A6207D7
:101320007307840728F0B25A620B730B840BE395A2
:101330009A9572F7803830F49A95BB0F661F771F25
:10134000881FD2F790480C94740A092E0394000C5D
:1013500011F4882352F0BB0F40F4BF2B11F460FF4F
:1013600004C06F5F7F4F8F4F9F4F0895EF93E0FF53
:1013700007C0A2EA2AED3FE049EC5FEB0E940208B9
:101380000E94A5090F90039401FC9058E8E6F0E054
:101390000C94800A57FD9058440F551F59F05F3F39
:1013A00071F04795880F97FB991F61F09F3F79F087
:1013B00087950895121613061406551FF2CF469509
:1013C000F1DF08C0161617061806991FF1CF86958B
:1013D0007105610508940895E894BB27662777276F
:1013E000CB0197F908950E943F0908F48FEF089503
:1013F0000E940B0A0C94A5090E946C0938F00E9407
:10140000730920F0952311F00C9463090C94690979
:1014100011240C94ED090E94CA0970F3959FC1F341
:10142000950F50E0551F629FF001729FBB27F00D92
:10143000B11D639FAA27F00DB11DAA1F649F6627E7
:10144000B00DA11D661F829F2227B00DA11D621F36
:10145000739FB00DA11D621F839FA00D611D221FF0
:10146000749F3327A00D611D231F849F600D211DD4
:10147000822F762F6A2F11249F5750409AF0F1F057
:1014800088234AF0EE0FFF1FBB1F661F771F881FC0
:1014900091505040A9F79E3F510580F00C9463098C
:1014A0000C94ED095F3FE4F3983ED4F3869577956D
:1014B0006795B795F795E7959F5FC1F7FE2B880F66
:1014C000911D9695879597F908959F930E947C09A1
:1014D0000F9007FCEE5F0C94B6090E943F09880B41
:1014E000990B08959F3F31F0915020F4879577959F
:1014F0006795B795880F911D9695879597F90895EB
:101500009F938F937F936F93FF93EF939B01AC0116
:101510000E94F809EF91FF910E94940A2F913F9148
:101520004F915F910C94F809DF93CF931F930F9322
:10153000FF92EF92DF927B018C01689406C0DA2E55
:10154000EF010E940B0AFE01E894A59125913591C7
:1015500045915591A6F3EF010E940208FE01970103
:10156000A801DA9469F7DF90EF90FF900F911F9137
:10157000CF91DF91089581E090E0F8940C94C00A37
:04158000F894FFCF0D
:101584000400000000FC01690193014902C401A2A6
:1015940001B60100000000300325034803A7021D23
:1015A40003B702A8026E616E00696E66006F76660C
:1015B400004F4E004F4646002320537461747573E8
:1015C4003A200020446174613A2000204255464686
:0615D4003A20000D0A00A0
:00000001FF
